:020000001028C6
:10000800FE00030EF1000408F2000A08F300831250
:1000180003137F08F4001E2A11283023F700312328
:10002800F8008313A0308400E83028234830840087
:10003800683028238301C22983120313B7002D30A7
:10004800AF002F08B2000130AC07FF302C07840046
:100058000023AF002F08B80038080319D12825302D
:100068003806031943283808AF00370884002F08DA
:10007800831380000130AF002F08B7072728B3018A
:100088000130AC07FF302C0784000023B800003A89
:100098000319D128643A031955280D3A031955282C
:1000A80027283208840083130008B500840A000852
:1000B800B6000230AF002F08B207B61F6C28033015
:1000C800AF002F08B304B509B609B50A0319B60A73
:1000D800B801B80A0530380603198B283808AF006C
:1000E8002F07013E84000023B0000023B10031082F
:1000F8003602031D812830083502031C8B28013085
:10010800AF002F08B80705303806031D72283308DA
:10011800033903199A282D30AF00370884002F08B7
:10012800831380000130AF002F08B7073808AF00ED
:100138002F08B400FF30AF002F08B407340A0319A2
:1001480027280A30A7000030A8003408AF002F077E
:10015800013E84000023A0000023A1003608A3006C
:100168003508A2007422831203132108AA0020086C
:10017800A900B222831203132708303EB0003008CA
:10018800B8003808AF00370884002F0883138000B0
:100198000130AF002F08B7079E2837088400831363
:1001A8008001080083120313BF00BD01BE01173090
:1001B800C4000030C500C51B38294409B9004509E9
:1001C800BA00B90A0319BA0A3908173EC0003A0832
:1001D8000318013E003EC1004108803AFF0080300C
:1001E8007F02031DF92801304002031C1B298312DA
:1001F80003134408B90039073F07BA003A088400D6
:1002080003108313800D840A800D8403FF30C00718
:100218000318C10AFF30C1074108803AFF00803047
:100228007F02031D1929013040020318FB2883129D
:1002380003134408B90039073F07BA003A08840095
:1002480083130008BB00840A0008BC003B08BD07F4
:100258000318BE0A3C08BE07FF30C4070318C50AC6
:10026800FF30C507C51FE1281730C2000030C300A2
:10027800C31B4B294208D03E840083138001FF3002
:10028800C2070318C30AFF30C307C31F3E290B3038
:10029800B9003908AC003E08AE003D08AD00D030CA
:1002A8002020080083120313051085195929A40179
:1002B800A5012508803AFF0080307F02031D6629CA
:1002C8001930240203187D2983120313051405101D
:1002D8000130A4070318A50A0030A5072508803AAD
:1002E800FF0080307F02031D7B2919302402031C84
:1002F80068298312031385197D29A601A7012708F8
:10030800803AFF0080307F02031D8C2918302602B6
:100318000318B529831203130514050CA000A00CBB
:10032800200C0139A100A2012608A3002307A03E42
:100338008400210883138000840A220880000510A5
:100348000130A6070318A70A0030A7072708803A34
:10035800FF0080307F02031DB32918302602031CDA
:100368008E29831203130514013083160313CE0656
:100378000030CF06831203130510080007308312DC
:1003880003139F0006308316031386001323E62207
:100398001F2383120313E001E101E201E3010510C9
:1003A8008316031386138312031386178519DA2914
:1003B800051605125621A030D62083120313C60154
:1003C800C7014708803AFF0080307F02031DEE29ED
:1003D8001830460203180D2A83160313981CF029B7
:1003E800831203134608D03E840083130008990043
:1003F8000130C6070318C70A0030C7074708803A04
:10040800FF0080307F02031D0B2A18304602031CB0
:10041800F02983160313981C0D2A0D308312031339
:10042800990083160313981C152A0A3083120313A4
:100438009900DA290B198B1E302A0130E4070030A5
:1004480003180130E507003003180130E6070030D3
:1004580003180130E7070B116708031D402A6608D7
:10046800031D402A27306502031D3E2A103064020E
:10047800031D3E2A031C482A0030E7000030E6002E
:100488000030E5000030E4008C1E582A1A08F000FD
:100498006008483E84007008831380000130E0073C
:1004A8000318E10A0030E1076108803AFF00803054
:1004B8007F02031D612A18306002031C672A831219
:1004C8000313E001E101740883120313FF007308AA
:1004D8008A0072088400710E8300FE0E7E0E0900E9
:1004E80083120313A501A601200821040319AD2ACC
:1004F800A401A40AA11B8C2A01300310A00DA10D90
:10050800FF3E031D812A0130F5007508A4077E2AE5
:1005180001300310A50DA60DFF3E031D8D2A2108ED
:100528002302031D992A20082202031CA22A20085C
:10053800A2022108031CA303A302251401300310FF
:10054800A10CA00CFF3E031DA32A0130A402031D29
:100558008C2A2608A1002508A0000800831203138E
:10056800270828040319E12AAB01AB0AA81BC82AEB
:1005780001300310A70DA80DFF3E031DBD2A013051
:10058800F6007608AB07BA2A28082A02031DCE2AE5
:1005980027082902031CD62A2708A9022808031CB1
:1005A800AA03AA0201300310A80CA70CFF3E031DE2
:1005B800D72A0130AB02031DC82A2A08A800290837
:1005C800A700080083160313181398161812181595
:1005D8008312031398171813181683160313861417
:1005E80006158C1681309900831203138C120800AB
:1006000003308A000408840A82070034013400346D
:100610000A34003464340034E834033410342734AA
:100620002534643400348B178B160B118316031397
:10063000811201128111011081100111080083162D
:100640000313051085150512831203130510080006
:1006500064008001840A0406031900340406292B6F
:040660001834003416
:02400E000AFFA7
:00000001FF
