:020000001028C6
:10000800FE00030EF1000408F2000A08F300831250
:1000180003137F08F400D82A11287530840079303A
:10002800D9238313203084005130D92383011C281D
:100038000730831203139F000630831603138600CC
:10004800C423AE23D02383120313B801B901BA0124
:10005800BB0105108617663083120313EC00763057
:10006800EB00C030EA00EA0B3728EB0B3728EC0B23
:1000780037283E28682290239023902390238316C4
:100088000313A001A1012108803AFF0080307F02FC
:10009800031D50280A302002031871288316031301
:1000A800981C522820083C3E8400831300088312C1
:1000B80003139900013083160313A0070318A10A3C
:1000C8000030A1072108803AFF0080307F02031D1D
:1000D8006F280A302002031C522883160313981C29
:1000E80071280D3083120313990083160313981C8B
:1000F80079280A3083120313990083160313981C76
:100108008128703083120313990067238316031321
:10011800A201A3012308803AFF0080307F02031D5B
:1001280097280C3022020318B82883160313981C4A
:10013800992822083C3E8400831300088312031385
:100148009900013083160313A2070318A30A00308D
:10015800A3072308803AFF0080307F02031DB628DA
:100168000C302202031C992883160313981CB82804
:100178000D3083120313990083160313981CC028AB
:100188000A30862883120313E501E6010030D40003
:100198000030D3000030D2000530D1006308D80009
:1001A8006208D7006108D6006008D50026238312AC
:1001B80003135408E3005308E2005208E100510811
:1001C800E000E31FF7282D30E4006408BC00E009D4
:1001D800E109E209E309E00A0319E10A0319E20A5D
:1001E8000319E30AFB282B30E4006408BC00C701AC
:1001F8000A30E5000030E600630862046104600428
:10020800031944290030D4000030D3000030D20054
:100218000A30D1006308D8006208D7006108D60008
:100228006008D500EF21831203135108303EE40023
:1002380065083C3E8400640883138000FF30E507AE
:100248000318E60AFF30E6070030D4000030D30078
:100258000030D2000A30D1006308D8006208D70005
:100268006108D6006008D500602183120313540882
:10027800E3005308E2005208E1005108E0000029B9
:100288006608803AFF0080307F02031D4D29013047
:100298006502031C0800303083120313E40065086C
:1002A8003C3E8400640883138000FF30E507031890
:1002B800E60AFF30E607442983120313DB01D41F43
:1002C8007229D109D209D309D409D10A0319D20A4A
:1002D8000319D30A0319D40ADB01DB0AD81F8329BF
:1002E800D509D609D709D809D50A0319D60A031991
:1002F800D70A0319D80A0130D9005908DB0600309B
:10030800DF000030DE000030DD000030DC00540883
:100318005304520451040319D829DA01DA0AD41B08
:10032800A3290130D9000310D10DD20DD30DD40D5E
:10033800D90B97290130D9005908DA0793290130D8
:10034800D9000310DC0DDD0DDE0DDF0DD90BA5295D
:1003580054085802031DBA2953085702031DBA2925
:1003680052085602031DBA2951085502031CCB290D
:100378005108D5025208031C520FD6025308031C19
:10038800530FD7025408031C540FD8025C140130D1
:100398000310D40CD30CD20CD10CFF3E031DCC2976
:1003A8000130DA02031DA3295B080319E629DC09D9
:1003B800DD09DE09DF09DC0A0319DD0A0319DE0A93
:1003C8000319DF0A5F08D4005E08D3005D08D20075
:1003D8005C08D100080083120313DB01D81F012A2F
:1003E800D509D609D709D809D50A0319D60A031990
:1003F800D70A0319D80ADB01DB0AD41F0E2AD10950
:10040800D209D309D409D10A0319D20A0319D30A84
:100418000319D40A54085304520451040319512AE5
:10042800DA01DA0AD41B262A0130D9000310D10DCB
:10043800D20DD30DD40DD90B1A2A0130D900590881
:10044800DA07162A54085802031D342A530857029B
:10045800031D342A52085602031D342A5108550236
:10046800031C442A5108D5025208031C520FD60215
:100478005308031C530FD7025408031C540FD80207
:1004880001300310D40CD30CD20CD10CFF3E031D49
:10049800452A0130DA02031D262A5B0803195F2A60
:1004A800D509D609D709D809D50A0319D60A0319CF
:1004B800D70A0319D80A5808D4005708D300560891
:1004C800D2005508D10008008312031305108519BE
:1004D8006B2AD501D6015608803AFF0080307F028A
:1004E800031D782A1930550203188F2A8312031323
:1004F800051405100130D5070318D60A0030D607B1
:100508005608803AFF0080307F02031D8D2A19307B
:100518005502031C7A2A8312031385198F2A003087
:10052800CE000030CF000030D000D701D8015808E5
:10053800803AFF0080307F02031DA42A183057023A
:100548000318D12A83120313051401300310CE0DAA
:10055800CF0DD00DFF3E031DAA2A0510050CD100B2
:10056800D10C510C0139D200D301D4015208CE0468
:100578005308CF045408D0040130D7070318D80A09
:100588000030D8075808803AFF0080307F02031DEA
:10059800CF2A18305702031CA62A83120313051406
:1005A8008030D006051008000B198B1EEA2A01308E
:1005B800F507003003180130F60700300318013042
:1005C800F707003003180130F8070B117808031DEE
:1005D800FA2A7708031DFA2A27307602031DF82A1B
:1005E80010307502031DF82A031C022B0030F80096
:1005F8000030F7000030F6000030F5008C1E122B9A
:100608001A08F0003808203E840070088313800020
:100618000130B8070318B90A0030B90700303902A9
:10062800183003193802031C1B2BB801B9017408D0
:10063800FF0073088A0072088400710E8300FE0EA2
:100648007E0E0900003083120313DD000030DC0049
:100658000030DB000030DA00511C462B5508DA0761
:10066800560803110318013E031DDB075708031141
:100678000318013E031DDC07580803110318013E47
:10068800031DDD070130D9000310D50DD60DD70D98
:10069800D80DD90B482B01300310D40CD30CD20C35
:1006A800D10CFF3E031D502B54085304520451042F
:1006B800031D302B5D08D4005C08D3005B08D20012
:1006C8005A08D10008006822831203134E084B070A
:1006D800E7004C08E8004F0803184F0A031DE80715
:1006E8004D08E90050080318500AE9076708C800D0
:1006F8006808C9006908CA004808E0004908E1001C
:100708004A08E200E700670DE700031CE703E70279
:100718006709E300C62008006822831203134E0904
:10072800CB004F09CC005009CD00CB0A0319CC0AE5
:100738000319CD0A4B08E0004C08E1004D08E2001F
:10074800E700670DE700031CE703E7026709E3001A
:10075800C6200800831603131813981618121815C4
:100768008312031398171813181683160313861485
:1007780006158C1681309900831203138C12080019
:100788008B178B160B11831603138112011281111B
:100798000110811001110800831603130510851537
:1007A8000512831203130510080064008001840AEF
:0A07B8000406031900340406DA2BCE
:02400E000AFFA7
:00000001FF
