:020000001028C6
:10000800FE00030EF0000408F1000A08F200831253
:1000180003137F08F30050281128F501F601F701B2
:10002800F8018301172883160313860185017D20B3
:100038006D208312031386177808031D302877086C
:10004800031D302827307602031D2E281030750234
:10005800031D2E28031C202883120313060D060DEA
:100068000139F4000130F406F40CF40C06087406A7
:100078007F39740686000030F8000030F700003041
:10008800F6000030F50083160313981C4728463005
:1000980083120313990020280B198B1E6228013044
:1000A800F507003003180130F60700300318013057
:1000B800F707003003180130F8070B117308FF0029
:1000C80072088A0071088400700E8300FE0E7E0E8E
:1000D800090083160313181398161812181583129B
:1000E80003139817181318168130831603139900F1
:1000F80008008B178B160B1183160313811201123C
:0A010800811101108110011108009F
:02400E000AFFA7
:00000001FF
