:020000001028C6
:10000800FE00030EF1000408F2000A08F300831250
:1000180003137F08F400E32811286C21F6006D21F2
:10002800F7008313A0308400D0306421203084008E
:100038004030642183018C2883120313051085192D
:100048002328C401C5014508803AFF0080307F029B
:10005800031D30281930440203184728831203135C
:10006800051405100130C4070318C50A0030C50778
:100078004508803AFF0080307F02031D452819306B
:100088004402031C32288312031385194728C6012A
:10009800C7014708803AFF0080307F02031D5628B9
:1000A8001830460203187F28831203130514050C21
:1000B800C000C00C400C0139C100C2014608C30091
:1000C8004307A03E8400410883138000840A420845
:1000D800800005100130C6070318C70A0030C7079B
:1000E8004708803AFF0080307F02031D7D281830C2
:1000F8004602031C58288312031305140130831683
:100108000313CE060030CF06831203130510080030
:100118000730831203139F000630831603138600EB
:100128004F2139215B2183120313B801B901BA01A8
:10013800BB01051085199E2805160512202083127B
:100148000313C801C9014908803AFF0080307F02C3
:10015800031DB028183048020318D2288316031349
:10016800981CB228831203134808F5007507A03EAF
:10017800840083130008303E99000130C807031833
:10018800C90A0030C9074908803AFF0080307F0259
:10019800031DD02818304802031CB2288316031305
:1001A800981CD2280D308312031399008316031369
:1001B800981CDA280A308312031399009E280B1919
:1001C8008B1EF5280130BC07003003180130BD072D
:1001D800003003180130BE07003003180130BF0794
:1001E8000B113F08031D05293E08031D052927306B
:1001F8003D02031D032910303C02031D0329031C83
:100208000D290030BF000030BE000030BD000030B6
:10021800BC008C1E1D291A08F0003808203E8400F6
:100228007008831380000130B8070318B90A00303A
:10023800B9073908803AFF0080307F02031D26295C
:1002480018303802031C2C2983120313B801B90192
:10025800740883120313FF0073088A00720884006D
:10026800710E8300FE0E7E0E090083160313181309
:1002780098161812181583120313981718131816BE
:1002880083160313861406158C1681309900831281
:1002980003138C1208008B178B160B11831603138C
:1002A80081120112811101108110011108008316B9
:1002B8000313051085150512831203130510080092
:1002C80064008001840A04060319003404066529C1
:0402D80018340034A2
:02400E000AFFA7
:00000001FF
