:020000001028C6
:10000800FE00030EF1000408F2000A08F300831250
:1000180003137F08F400082C112875308400793008
:10002800C82483134A3084005F30C824A030840079
:10003800BC30C8248301D52883120313B401B50149
:100048000030A3000030A2000030A1001630A0004C
:100058003208A7003108A6003008A5002F08A40020
:100068005C24831203132308B2002208B10021087C
:10007800B0002008AF000030A3000030A2002730F5
:10008800A1001030A0003208A7003108A6003008EF
:10009800A5002F08A4007D21831203132308B200B2
:1000A8002208B1002108B0002008AF00B21F6C2858
:1000B8002D30B3003308CA00AF09B009B109B2093D
:1000C800AF0A0319B00A0319B10A0319B20A702852
:1000D8002B30B3003308CA00D5010A30B400003011
:1000E800B5003208310430042F040319B928003050
:1000F800A3000030A2000030A1000A30A00032089E
:10010800A7003108A6003008A5002F08A4001F2367
:10011800831203132008303EB30034084A3E84009B
:10012800330883138000FF30B4070318B50AFF3083
:10013800B5070030A3000030A2000030A1000A304B
:10014800A0003208A7003108A6003008A5002F0833
:10015800A4007D21831203132308B2002208B100F2
:100168002108B0002008AF0075283508803AFF0044
:1001780080307F02031DC22801303402031C0800AE
:10018800303083120313B30034084A3E8400330826
:1001980083138000FF30B4070318B50AFF30B50792
:1001A800B9280730831203139F0006308316031300
:1001B8008600B3249D24BF2483160313B801B90114
:1001C800BA01BB0183120313051086176630831228
:1001D8000313C5007630C400C030C300C30BF22837
:1001E800C40BF228C50BF228F928982398229822E4
:1001F8009822982283120313C601C7014708803A40
:10020800FF0080307F02031D0B290A3046020318C5
:100218002A2983160313981C0D29831203134608F1
:100228004A3E84008313000899000130C60703186A
:10023800C70A0030C7074708803AFF0080307F02AE
:10024800031D28290A304602031C0D2983160313AF
:10025800981C2A290D30831203139900831603135F
:10026800981C32290A30831203139900831603134A
:10027800981C3A2970308312031399000C228312B8
:100288000313C801C9014908803AFF0080307F0282
:10029800031D50290C30480203186F2983160313D5
:1002A800981C52298312031348084A3E840083137A
:1002B800000899000130C8070318C90A0030C907A7
:1002C8004908803AFF0080307F02031D6D290C30F9
:1002D8004802031C522983160313981C6F290D30FA
:1002E80083120313990083160313981C77290A3085
:1002F8003F2983120313AA01A31F8F29A009A1096B
:10030800A209A309A00A0319A10A0319A20A031939
:10031800A30AAA01AA0AA71FA029A409A509A60930
:10032800A709A40A0319A50A0319A60A0319A70A03
:100338000130A8002808AA060030AE000030AD0041
:100348000030AC000030AB00230822042104200454
:100358000319F529A901A90AA31BC0290130A8007E
:100368000310A00DA10DA20DA30DA80BB4290130F7
:10037800A8002808A907B0290130A8000310AB0D70
:10038800AC0DAD0DAE0DA80BC22923082702031D25
:10039800D72922082602031DD72921082502031D73
:1003A800D72920082402031CE8292008A4022108D0
:1003B800031C210FA5022208031C220FA6022308F2
:1003C800031C230FA7022B1401300310A30CA20C4B
:1003D800A10CA00CFF3E031DE9290130A902031D51
:1003E800C0292A080319032AAB09AC09AD09AE09CB
:1003F800AB0A0319AC0A0319AD0A0319AE0A2E0891
:10040800A3002D08A2002C08A1002B08A0000800BA
:10041800003083120313BF000030BE000030BD005F
:100428000030BC00BA01BB013B08803AFF008030B5
:100438007F02031D212A05303A020318552A982302
:10044800831203135C08B6005D08B7005E08B800A5
:100458000030B81BFF30B9003608BC073708031155
:100468000318013E031DBD07380803110318013E98
:10047800031DBE07390803110318013E031DBF07FA
:100488000130BA070318BB0A0030BB073B08803AA3
:10049800FF0080307F02031D532A05303A02031CF7
:1004A800232A003083120313A3000030A200003077
:1004B800A1000530A0003F08A7003E08A6003D089F
:1004C800A5003C08A4007D21831203132308BF0064
:1004D8002208BE002108BD002008BC0059083C07BE
:1004E800B6003D08B7005A0803185A0A031DB70793
:1004F8003E08B8005B0803185B0AB8073608D60040
:100508003708D7003808D8005608AF005708B00099
:100518005808B100B600360DB600031CB603B60283
:100528003609B20020200800003083120313C200ED
:100538000030C1000030C0000030BF00BD01BE0166
:100548003E08803AFF0080307F02031DAD2A053047
:100558003D020318EC2A9823831203135C09B600A2
:100568005D09B7005E09B800B60A0319B70A03198E
:10057800B80A3608B9003708BA003808BB00003096
:10058800BB1BFF30BC003908BF073A08031103182A
:10059800013E031DC0073B0803110318013E031D5C
:1005A800C1073C0803110318013E031DC2070130AF
:1005B800BD070318BE0A0030BE073E08803AFF0098
:1005C80080307F02031DEA2A05303D02031CAF2A52
:1005D800003083120313A3000030A2000030A100F2
:1005E8000530A0004208A7004108A6004008A50061
:1005F8003F08A4007D21831203132308C2002208A8
:10060800C1002108C0002008BF003F08D9004008E9
:10061800DA004108DB005908AF005A08B0005B084F
:10062800B100B600360DB600031CB603B602360993
:10063800B2002020080083120313AA01A71F312B40
:10064800A409A509A609A709A40A0319A50A031953
:10065800A60A0319A70AAA01AA0AA31F3E2BA009E2
:10066800A109A209A309A00A0319A10A0319A20A48
:100678000319A30A23082204210420040319812B47
:10068800A901A90AA31B562B0130A8000310A00D2D
:10069800A10DA20DA30DA80B4A2B0130A800280814
:1006A800A907462B23082702031D642B22082602CC
:1006B800031D642B21082502031D642B2008240236
:1006C800031C742B2008A4022108031C210FA50277
:1006D8002208031C220FA6022308031C230FA702CB
:1006E80001300310A30CA20CA10CA00CFF3E031DAB
:1006F800752B0130A902031D562B2A0803198F2BCD
:10070800A409A509A609A709A40A0319A50A031992
:10071800A60A0319A70A2708A3002608A200250885
:10072800A1002408A00008008312031305108519EE
:100738009B2BA401A5012508803AFF0080307F0289
:10074800031DA82B193024020318BF2B831203138F
:10075800051405100130A4070318A50A0030A507E1
:100768002508803AFF0080307F02031DBD2B193019
:100778002402031CAA2B831203138519BF2B0030F4
:10078800DC000030DD000030DE00A601A7012708EC
:10079800803AFF0080307F02031DD42B18302602D8
:1007A8000318012C83120313051401300310DC0D08
:1007B800DD0DDE0DFF3E031DDA2B0510050CA00034
:1007C800A00C200C0139A100A201A3012108DC041E
:1007D8002208DD042308DE040130A6070318A70A4F
:1007E8000030A7072708803AFF0080307F02031DEA
:1007F800FF2B18302602031CD62B83120313051473
:100808008030DE06051008000B198B1E1A2C0130EB
:10081800F507003003180130F607003003180130DF
:10082800F707003003180130F8070B117808031D8B
:100838002A2C7708031D2A2C27307602031D282C22
:1008480010307502031D282C031C322C0030F800D0
:100858000030F7000030F6000030F5008C1E442C04
:100868001A08F000831603133808A03E84007008A5
:10087800831380000130B8070318B90A0030B9079C
:100888000030831603133902183003193802031C89
:100898004F2CB801B901740883120313FF007308C1
:1008A8008A0072088400710E8300FE0E7E0E090015
:1008B800003083120313AC000030AB000030AA00F4
:1008C8000030A900201C7C2C2408A9072508031146
:1008D8000318013E031DAA07260803110318013E49
:1008E800031DAB07270803110318013E031DAC07BE
:1008F8000130A8000310A40DA50DA60DA70DA80B87
:100908007E2C01300310A30CA20CA10CA00CFF3EFE
:10091800031D862C2308220421042004031D662CB1
:100928002C08A3002B08A2002A08A1002908A0006F
:100938000800831603131813981618121815831233
:10094800031398171813181683160313861406151D
:100958008C1681309900831203138C1208008B17B0
:100968008B160B11831603138112011281110110CA
:10097800811001110800831603130510851505124F
:10098800831203130510080064008001840A04061A
:08099800031900340406C92C08
:02400E000AFFA7
:00000001FF
