:020000001028C6
:10000800FE00030EF1000408F2000A08F300831250
:1000180003137F08F400542C1128753084007930BC
:100028005D2583132030840047305D25A03084008F
:10003800AA305D258301E32C83120313DB01DC0165
:100048000030CA000030C9000030C8001630C700B0
:100058005908CE005808CD005708CC005608CB00E8
:10006800A224831203134A08D9004908D800480873
:10007800D7004708D6000030CA000030C900273032
:10008800C8001030C7005908CE005808CD005708DE
:10009800CC005608CB007621831203134A08D900F6
:1000A8004908D8004808D7004708D600D91F702843
:1000B8002D30DA005A0883160313A00083120313A5
:1000C800D609D709D809D909D60A0319D70A0319AD
:1000D800D80A0319D90A76282B30DA005A08831669
:1000E8000313A00083160313A90108308312031316
:1000F800DB000030DC005908580457045604031983
:10010800C3280030CA000030C9000030C8000A30D7
:10011800C7005908CE005808CD005708CC0056082B
:10012800CB001823831203134708303EDA005B081C
:10013800A03E84005A0883138000FF30DB070318B1
:10014800DC0AFF30DC070030CA000030C90000308C
:10015800C8000A30C7005908CE005808CD00570813
:10016800CC005608CB007621831203134A08D90025
:100178004908D8004808D7004708D6007F285C08F7
:10018800803AFF0080307F02031DCC2801305B02DB
:10019800031C0800303083120313DA005B08A03E0A
:1001A80084005A0883138000FF30DB070318DC0A39
:1001B800FF30DC07C3288312031344084606031DD7
:1001C800E728430845060319080045082B3E840024
:1001D8005D3083130006031D1E294608C800450824
:1001E800C7000130C9000030CA002B300D254F3A36
:1001F80003190D29831203134608C8004508C700D0
:100208000130C9000030CA002B300D256F3A031D9C
:100218001E29831203134608C8004508C700023088
:10022800C9000030CA002B300D255B3A031D1E297A
:10023800013054298312031345082B3E84005D3096
:1002480083130006031D66294608C8004508C70031
:100258000130C9000030CA002B300D25443A03197B
:100268004429831203134608C8004508C700013013
:10027800C9000030CA002B300D25643A031D6629D9
:10028800831203134608C8004508C7000230C90096
:100298000030CA002B300D255B3A031D6629023059
:1002A80083120313A9000030AA00060D060D0139B8
:1002B800CD000130CD06CD0CCD0C06084D067F399A
:1002C8004D068600831203134408C6004308C50080
:1002D80000304602183003194502031C0800C50106
:1002E800C601080083120313D101CA1F8829C70950
:1002F800C809C909CA09C70A0319C80A0319C90AD2
:100308000319CA0AD101D10ACE1F9929CB09CC09F0
:10031800CD09CE09CB0A0319CC0A0319CD0A031952
:10032800CE0A0130CF004F08D1060030D50000308A
:10033800D4000030D3000030D2004A0849044804F1
:1003480047040319EE29D001D00ACA1BB929013084
:10035800CF000310C70DC80DC90DCA0DCF0BAD29AD
:100368000130CF004F08D007A9290130CF00031072
:10037800D20DD30DD40DD50DCF0BBB294A084E0293
:10038800031DD02949084D02031DD02948084C02F5
:10039800031DD02947084B02031CE1294708CB025B
:1003A8004808031C480FCC024908031C490FCD021A
:1003B8004A08031C4A0FCE02521401300310CA0C1B
:1003C800C90CC80CC70CFF3E031DE2290130D0023E
:1003D800031DB92951080319FC29D209D309D409E5
:1003E800D509D20A0319D30A0319D40A0319D50A5D
:1003F8005508CA005408C9005308C8005208C70065
:100408000800003083120313E6000030E5000030D6
:10041800E4000030E300E101E2016208803AFF00F5
:1004280080307F02031D1A2A0530610203184E2A04
:100438009123831203132608DD002708DE0028080D
:10044800DF000030DF1BFF30E0005D08E3075E08D7
:1004580003110318013E031DE4075F080311031885
:10046800013E031DE507600803110318013E031D43
:10047800E6070130E1070318E20A0030E2076208E4
:10048800803AFF0080307F02031D4C2A053061024C
:10049800031C1C2A003083120313CA000030C90051
:1004A8000030C8000530C7006608CE006508CD00DA
:1004B8006408CC006308CB007621831203134A0832
:1004C800E6004908E5004808E4004708E300230877
:1004D8006307DD006408DE0024080318240A031DEE
:1004E800DE076508DF0025080318250ADF075D0811
:1004F800A0005E08A1005F08A2002008D60021081D
:10050800D7002208D800DD005D0DDD00031CDD03E7
:10051800DD025D09D9002020080000308312031392
:10052800E9000030E8000030E7000030E600E401B0
:10053800E5016508803AFF0080307F02031DA62A86
:10054800053064020318E52A912383120313260950
:10055800DD002709DE002809DF00DD0A0319DE0AAD
:100568000319DF0A5D08E0005E08E1005F08E200A9
:100578000030E21BFF30E3006008E6076108031162
:100588000318013E031DE707620803110318013E23
:10059800031DE807630803110318013E031DE9075B
:1005A8000130E4070318E50A0030E5076508803ADA
:1005B800FF0080307F02031DE32A05306402031C1C
:1005C800A82A003083120313CA000030C900003083
:1005D800C8000530C7006908CE006808CD00670864
:1005E800CC006608CB007621831203134A08E90081
:1005F8004908E8004808E7004708E6006608A3003D
:100608006708A4006808A5002308D6002408D700B6
:100618002508D800DD005D0DDD00031CDD03DD02CB
:100628005D09D9002020080083120313D101CE1FD1
:100638002A2BCB09CC09CD09CE09CB0A0319CC0A40
:100648000319CD0A0319CE0AD101D10ACA1F372BC3
:10065800C709C809C909CA09C70A0319C80A031971
:10066800C90A0319CA0A4A0849044804470403196D
:100678007A2BD001D00ACA1B4F2B0130CF000310B0
:10068800C70DC80DC90DCA0DCF0B432B0130CF00C4
:100698004F08D0073F2B4A084E02031D5D2B49081F
:1006A8004D02031D5D2B48084C02031D5D2B4708B6
:1006B8004B02031C6D2B4708CB024808031C480F4C
:1006C800CC024908031C490FCD024A08031C4A0FF3
:1006D800CE0201300310CA0CC90CC80CC70CFF3E6F
:1006E800031D6E2B0130D002031D4F2B5108031937
:1006F800882BCB09CC09CD09CE09CB0A0319CC0A22
:100708000319CD0A0319CE0A4E08CA004D08C900BC
:100718004C08C8004B08C7000800831203130510D3
:100728008519942BCB01CC014C08803AFF0080300E
:100738007F02031DA12B19304B020318B82B83121B
:100748000313051405100130CB070318CC0A003039
:10075800CC074C08803AFF0080307F02031DB62B7F
:1007680019304B02031CA32B831203138519B82BD2
:100778000030A6000030A7000030A800CD01CE014F
:100788004E08803AFF0080307F02031DCD2B1830C1
:100798004D020318FA2B83120313051401300310BA
:1007A800A60DA70DA80DFF3E031DD32B0510050CA4
:1007B800C700C70C470C0139C800C901CA0148085D
:1007C800A6044908A7044A08A8040130CD0703185D
:1007D800CE0A0030CE074E08803AFF0080307F02F4
:1007E800031DF82B18304D02031CCF2B8312031363
:1007F80005148030A806051008000530831203137D
:10080800C7000030C8004808803AFF0080307F02E7
:10081800031D102C0A3047020318432C083083129A
:100828000313470648040319432C83160313981C23
:10083800192C831203134708A03E84008313000871
:100848009900053047064804031D322C831603130C
:10085800981C2A2C2E308312031399000130C707E5
:100868000318C80A0030C8074808803AFF008030DB
:100878007F02031D412C0A304702031C122C8316E9
:100888000313981C432C0D3083120313990083160D
:100898000313981C4B2C0A30831203139900080089
:1008A8000B198B1E662C0130F50700300318013038
:1008B800F607003003180130F7070030031801303D
:1008C800F8070B117808031D762C7708031D762C82
:1008D80027307602031D742C10307502031D742C0A
:1008E800031C7E2C0030F8000030F7000030F600C2
:1008F8000030F5008C1E8E2C1A08F00043082B3EA1
:1009080084007008831380000130C3070318C40AE9
:100918000030C40700304402183003194302031C96
:10092800972CC301C4017408FF0073088A00720879
:100938008400710E8300FE0E7E0E090000308312C3
:100948000313D3000030D2000030D1000030D000B3
:10095800471CC22C4B08D0074C0803110318013E52
:10096800031DD1074D0803110318013E031DD207CB
:100978004E0803110318013E031DD3070130CF00B1
:100988000310CB0DCC0DCD0DCE0DCF0BC42C0130EB
:100998000310CA0CC90CC80CC70CFF3E031DCC2C95
:1009A8004A08490448044704031DAC2C5308CA00EC
:1009B8005208C9005108C8005008C700080007308D
:1009C800831203139F0006308316031386004825FD
:1009D8003225542583120313C301C401C501C6017E
:1009E8000510861791239122FF2C052201248312DA
:1009F8000313A901AA01DF208312031329032A0480
:100A08000319F92C023029062A04031DFF2C912210
:100A1800FB2C83120313CC0049084A0403192A2D1E
:100A280047084804031D1D2D0130C7000030C800C9
:100A3800232DFF30C7070318C80AFF30C807013045
:100A4800C9020030031CCA03CA02102D47084C070C
:100A5800CB004B0884008313000808008316031397
:100A680018139816181218158312031398171813C9
:100A7800181683160313861406158C1681309900F0
:100A8800831203138C1208008B178B160B11831615
:100A98000313811201128111011081100111080044
:100AA8008316031305108515051283120313051009
:100AB800080064008001840A04060319003404064F
:020AC8005E2DA1
:02400E000AFFA7
:00000001FF
