:020000001028C6
:10000800FE00030EF1000408F2000A08F300831250
:1000180003137F08F4001E2C1128753084007930F2
:10002800DE2483134A3084005D30DE24A03084004F
:10003800BC30DE24830120280730831203139F007D
:100048000630831603138600C924B324D5248316E7
:100058000313B801B901BA01BB01831203130510D8
:100068008617663083120313C5007630C400C0308B
:10007800C300C30B3D28C40B3D28C50B3D284428AD
:10008800AE23AE22AE22AE22AE2283120313C601E5
:10009800C7014708803AFF0080307F02031D5628B9
:1000A8000A3046020318752883160313981C58282B
:1000B8008312031346084A3E8400831300089900FC
:1000C8000130C6070318C70A0030C7074708803A37
:1000D800FF0080307F02031D73280A304602031C8C
:1000E800582883160313981C75280D3083120313A0
:1000F800990083160313981C7D280A308312031372
:10010800990083160313981C8528703083120313F3
:1001180099002222053083120313C8000030C90059
:100128004908803AFF0080307F02031D9D280A306D
:1001380048020318D02808308312031348064904DC
:100148000319D02883160313981CA62883120313B7
:1001580048084A3E84008313000899000530480681
:100168004904031DBF2883160313981CB7282E3093
:100178008312031399000130C8070318C90A003015
:10018800C9074908803AFF0080307F02031DCE2846
:100198000A304802031C9F2883160313981CD02892
:1001A8000D3083120313990083160313981CD82863
:1001B8000A308A2883120313B401B5010030A30062
:1001C8000030A2000030A1001630A0003208A700BD
:1001D8003108A6003008A5002F08A4007224831255
:1001E80003132308B2002208B1002108B000200838
:1001F800AF000030A3000030A2002730A10010306B
:10020800A0003208A7003108A6003008A5002F0872
:10021800A4009321831203132308B2002208B1001B
:100228002108B0002008AF00B21F2A292D30B300E2
:100238003308CA00AF09B009B109B209AF0A0319F6
:10024800B00A0319B10A0319B20A2E292B30B300D8
:100258003308CA00D3010830B4000030B5003208B2
:10026800310430042F04031977290030A30000302B
:10027800A2000030A1000A30A0003208A70031080F
:10028800A6003008A5002F08A40035238312031305
:100298002008303EB30034084A3E840033088313F4
:1002A8008000FF30B4070318B50AFF30B5070030E7
:1002B800A3000030A2000030A1000A30A0003208DC
:1002C800A7003108A6003008A5002F08A400932134
:1002D800831203132308B2002208B1002108B000DA
:1002E8002008AF0033293508803AFF0080307F02AC
:1002F800031D802901303402031C080030308312AA
:100308000313B30034084A3E840033088313800083
:10031800FF30B4070318B50AFF30B50777298312F1
:100328000313AA01A31FA529A009A109A209A309CA
:10033800A00A0319A10A0319A20A0319A30AAA0108
:10034800AA0AA71FB629A409A509A609A709A40AE4
:100358000319A50A0319A60A0319A70A0130A80058
:100368002808AA060030AE000030AD000030AC000E
:100378000030AB00230822042104200403190B2AAF
:10038800A901A90AA31BD6290130A8000310A00DB2
:10039800A10DA20DA30DA80BCA290130A800280899
:1003A800A907C6290130A8000310AB0DAC0DAD0D8F
:1003B800AE0DA80BD82923082702031DED29220812
:1003C8002602031DED2921082502031DED29200819
:1003D8002402031CFE292008A4022108031C210F63
:1003E800A5022208031C220FA6022308031C230FC0
:1003F800A7022B1401300310A30CA20CA10CA00C13
:10040800FF3E031DFF290130A902031DD6292A0832
:100418000319192AAB09AC09AD09AE09AB0A0319CE
:10042800AC0A0319AD0A0319AE0A2E08A3002D0859
:10043800A2002C08A1002B08A0000800003083129D
:100448000313BF000030BE000030BD000030BC0008
:10045800BA01BB013B08803AFF0080307F02031DD0
:10046800372A05303A0203186B2AAE238312031386
:100478005A08B6005B08B7005C08B8000030B81B23
:10048800FF30B9003608BC07370803110318013ECE
:10049800031DBD07380803110318013E031DBE07DD
:1004A800390803110318013E031DBF070130BA07BD
:1004B8000318BB0A0030BB073B08803AFF008030B6
:1004C8007F02031D692A05303A02031C392A0030CD
:1004D80083120313A3000030A2000030A1000530EE
:1004E800A0003F08A7003E08A6003D08A5003C085C
:1004F800A4009321831203132308BF002208BE001F
:100508002108BD002008BC0057083C07B6003D087C
:10051800B70058080318580A031DB7073E08B80063
:1005280059080318590AB8073608D4003708D500FF
:100538003808D6005408AF005508B0005608B10076
:10054800B600360DB600031CB603B6023609B20073
:10055800DE200800003083120313C2000030C100FF
:100568000030C0000030BF00BD01BE013E08803A27
:10057800FF0080307F02031DC32A05303D020318A7
:10058800022BAE23831203135A09B6005B09B70086
:100598005C09B800B60A0319B70A0319B80A36087D
:1005A800B9003708BA003808BB000030BB1BFF3061
:1005B800BC003908BF073A0803110318013E031DA0
:1005C800C0073B0803110318013E031DC1073C087F
:1005D80003110318013E031DC2070130BD070318AC
:1005E800BE0A0030BE073E08803AFF0080307F0216
:1005F800031D002B05303D02031CC52A0030831261
:100608000313A3000030A2000030A1000530A000B1
:100618004208A7004108A6004008A5003F08A4001A
:100628009321831203132308C2002208C100210862
:10063800C0002008BF003F08D7004008D800410884
:10064800D9005708AF005808B0005908B100B600E3
:10065800360DB600031CB603B6023609B200DE201A
:10066800080083120313AA01A71F472BA409A50991
:10067800A609A709A40A0319A50A0319A60A0319B2
:10068800A70AAA01AA0AA31F542BA009A109A20913
:10069800A309A00A0319A10A0319A20A0319A30AA4
:1006A80023082204210420040319972BA901A90A6D
:1006B800A31B6C2B0130A8000310A00DA10DA20DE7
:1006C800A30DA80B602B0130A8002808A9075C2BF4
:1006D80023082702031D7A2B22082602031D7A2BE2
:1006E80021082502031D7A2B20082402031C8A2BCB
:1006F8002008A4022108031C210FA5022208031CBC
:10070800220FA6022308031C230FA702013003109F
:10071800A30CA20CA10CA00CFF3E031D8B2B0130D7
:10072800A902031D6C2B2A080319A52BA409A509E6
:10073800A609A709A40A0319A50A0319A60A0319F1
:10074800A70A2708A3002608A2002508A100240854
:10075800A00008008312031305108519B12BA4010A
:10076800A5012508803AFF0080307F02031DBE2BBB
:10077800193024020318D52B83120313051405100E
:100788000130A4070318A50A0030A5072508803AF8
:10079800FF0080307F02031DD32B19302402031C75
:1007A800C02B831203138519D52B0030DA000030D3
:1007B800DB000030DC00A601A7012708803AFF0013
:1007C80080307F02031DEA2B183026020318172CED
:1007D80083120313051401300310DA0DDB0DDC0D51
:1007E800FF3E031DF02B0510050CA000A00C200CEB
:1007F8000139A100A201A3012108DA042208DB04BF
:100808002308DC040130A6070318A70A0030A7074D
:100818002708803AFF0080307F02031D152C18300E
:100828002602031CEC2B8312031305148030DC060C
:10083800051008000B198B1E302C0130F50700300D
:1008480003180130F607003003180130F7070030AD
:1008580003180130F8070B117808031D402C77089E
:10086800031D402C27307602031D3E2C10307502E4
:10087800031D3E2C031C482C0030F8000030F70004
:100888000030F6000030F5008C1E5A2C1A08F000D3
:10089800831603133808A03E840070088313800071
:1008A8000130B8070318B90A0030B90700308316B9
:1008B80003133902183003193802031C652CB801D8
:1008C800B901740883120313FF0073088A007208C1
:1008D8008400710E8300FE0E7E0E09000030831224
:1008E8000313AC000030AB000030AA000030A900B0
:1008F800201C922C2408A907250803110318013E7F
:10090800031DAA07260803110318013E031DAB07A0
:10091800270803110318013E031DAC070130A80086
:100928000310A40DA50DA60DA70DA80B942C01303E
:100938000310A30CA20CA10CA00CFF3E031D9C2CC1
:100948002308220421042004031D7C2C2C08A30066
:100958002B08A2002A08A1002908A0000800831675
:1009680003131813981618121815831203139817DF
:100978001813181683160313861406158C1681305F
:100988009900831203138C1208008B178B160B1116
:1009980083160313811201128111011081100111B4
:1009A8000800831603130510851505128312031317
:1009B8000510080064008001840A04060319003445
:0409C8000406DF2C16
:02400E000AFFA7
:00000001FF
