:020000001028C6
:10000800FE00030EF1000408F2000A08F300831250
:1000180003137F08F400AB2811288313D030FD00A8
:100028000130FE005330FF00A03084009D21C12123
:10003800F700C221F800203084004030B421830149
:10004800252806308316031386008501A8218321FD
:10005800BC2183120313B801B901BA01BB01861789
:100068008312031339083B06031D3C2838083A0657
:10007800031934283A08203E8400613083130006AF
:10008800031D482886174F283A08203E84006B3005
:100098000006031986133A08203E84006F300006D4
:1000A800031D9328012183120313060D060D013940
:1000B800F6000130F606F60CF60C060876067F39CF
:1000C80076068600C201C3014308803AFF008030EB
:1000D8007F02031D712818304202031893288316E3
:1000E8000313981C7328831203134208F60076073B
:1000F800A03E840083130008303E99000130C207F7
:100108000318C30A0030C3074308803AFF00803051
:100118007F02031D912818304202031C7328013006
:1001280083120313BA070318BB0A0030BB073B0846
:10013800803AFF0080307F02031DA42818303A025D
:10014800031C342883120313BA01BB0134280B198A
:100158008B1EBD280130BC07003003180130BD07D5
:10016800003003180130BE07003003180130BF0704
:100178000B113F08031DCD283E08031DCD2827304D
:100188003D02031DCB2810303C02031DCB28031C65
:10019800D5280030BF000030BE000030BD00003060
:1001A800BC008C1EE5281A08F0003808203E8400A0
:1001B8007008831380000130B8070318B90A0030AB
:1001C800B9073908803AFF0080307F02031DEE2806
:1001D80018303802031CF42883120313B801B9013C
:1001E800740883120313FF0073088A0072088400DE
:1001F800710E8300FE0E7E0E0900FF30831203137A
:10020800C000FF30C1001730F7000030F800F81BBD
:100218001D297708F5007507A03E84008313800127
:10022800840A8001FF30F7070318F80AFF30F8073F
:100238000B298312031386160611861E3B292129D2
:100248008312031306110130C0070318C10A0030D6
:10025800C1070615861E3B294008F5007507A03E14
:100268008400013083138000840A00308000410834
:10027800803AFF0080307F02031D44291830400275
:10028800031C242983120313061501308316031354
:10029800CE060030CF06831203130611080001347E
:1002A80000340134003400340034003400340034A5
:1002B8000034003400340034003400340034003496
:1002C8000034003400340034003400340034003486
:1002D8000034003400340034003400340034003476
:1002E8000034003400340034003400340034003466
:1002F80000340034003400340034003400348316F1
:100308000313181398161812181583120313981745
:100318001813181683160313861406158C168130C5
:100328009900831203138C1208007E088A007F0844
:10033800820099218000840A04087D06031900348C
:10034800FF0A0319FE0A9D298B178B160B118316BA
:10035800031381120112811101108110011108008B
:1003680064008001840A0406031900340406B529D0
:0E03780083160313061186160800183400348D
:02400E000AFFA7
:00000001FF
