:020000001028C6
:10000800FE00030EF1000408F2000A08F300831250
:1000180003137F08F40080281128773084007B3090
:10002800D4208313203084003D30D42083011C2841
:1000380006308316031386008501C820B520831275
:100048000313B901BA01BB01BC0186171A08F500F0
:100058007508FB007A08031D3E287908031D3E2811
:1000680027307802031D3C2810307702031D3C28F6
:10007800031C46280030FA000030F9000030F80070
:100088000030F7003C08803AFF0080307F02031DF3
:100098004F2818303B02031C552883120313BB0159
:1000A800BC01831203133A08803AFF0080307F02B4
:1000B800031D602818303902031C662883120313B5
:1000C800B901BA010330831203133905F500003072
:1000D8003A05F60075087604031D2E28060D060D50
:1000E8000139F5000130F506F50CF50C0608750622
:1000F8007F39750686002E280B198B1E9228013031
:10010800F707003003180130F807003003180130F2
:10011800F907003003180130FA070B118C1EAA28C2
:100128001A08F0003908203E840070088313800004
:1001380083160313981C9C284630831203139900D6
:100148000130B9070318BA0A0030BA077408FF006B
:1001580073088A0072088400710E8300FE0E7E0EFA
:10016800090083160313181398161812181583120A
:1001780003139817181318168316031386140615F5
:100188008C168130990008008B178B160B1183167B
:10019800031381120112811101108110011108004D
:1001A80064008001840A0406031900340406D52873
:02400E000AFFA7
:00000001FF
